{
	"contracts/97. Events.sol": {
		"Events": {
			"abi": [
				{
					"anonymous": false,
					"inputs": [
						{
							"indexed": true,
							"internalType": "uint256",
							"name": "transactionId",
							"type": "uint256"
						},
						{
							"indexed": true,
							"internalType": "address",
							"name": "sender",
							"type": "address"
						},
						{
							"indexed": true,
							"internalType": "address",
							"name": "recipient",
							"type": "address"
						},
						{
							"indexed": false,
							"internalType": "uint256",
							"name": "amount",
							"type": "uint256"
						}
					],
					"name": "NewTransaction",
					"type": "event"
				},
				{
					"inputs": [
						{
							"internalType": "address",
							"name": "recipient",
							"type": "address"
						},
						{
							"internalType": "uint256",
							"name": "amount",
							"type": "uint256"
						}
					],
					"name": "Transfer",
					"outputs": [],
					"stateMutability": "nonpayable",
					"type": "function"
				}
			],
			"devdoc": {
				"kind": "dev",
				"methods": {},
				"version": 1
			},
			"evm": {
				"assembly": "    /* \"contracts/97. Events.sol\":63:499  contract Events... */\n  mstore(0x40, 0x80)\n  callvalue\n  dup1\n  iszero\n  tag_1\n  jumpi\n  0x00\n  dup1\n  revert\ntag_1:\n  pop\n  dataSize(sub_0)\n  dup1\n  dataOffset(sub_0)\n  0x00\n  codecopy\n  0x00\n  return\nstop\n\nsub_0: assembly {\n        /* \"contracts/97. Events.sol\":63:499  contract Events... */\n      mstore(0x40, 0x80)\n      callvalue\n      dup1\n      iszero\n      tag_1\n      jumpi\n      0x00\n      dup1\n      revert\n    tag_1:\n      pop\n      jumpi(tag_2, lt(calldatasize, 0x04))\n      shr(0xe0, calldataload(0x00))\n      dup1\n      0x69ca02dd\n      eq\n      tag_3\n      jumpi\n    tag_2:\n      0x00\n      dup1\n      revert\n        /* \"contracts/97. Events.sol\":208:496  function Transfer(address recipient, uint amount) public... */\n    tag_3:\n      tag_4\n      0x04\n      dup1\n      calldatasize\n      sub\n      dup2\n      add\n      swap1\n      tag_5\n      swap2\n      swap1\n      tag_6\n      jump\t// in\n    tag_5:\n      tag_7\n      jump\t// in\n    tag_4:\n      stop\n    tag_7:\n        /* \"contracts/97. Events.sol\":336:339  400 */\n      0x0190\n        /* \"contracts/97. Events.sol\":326:332  amount */\n      dup2\n        /* \"contracts/97. Events.sol\":326:339  amount >= 400 */\n      lt\n      iszero\n        /* \"contracts/97. Events.sol\":318:377  require(amount >= 400, \"The amount is less than expected.\") */\n      tag_9\n      jumpi\n      mload(0x40)\n      0x08c379a000000000000000000000000000000000000000000000000000000000\n      dup2\n      mstore\n      0x04\n      add\n      tag_10\n      swap1\n      tag_11\n      jump\t// in\n    tag_10:\n      mload(0x40)\n      dup1\n      swap2\n      sub\n      swap1\n      revert\n    tag_9:\n        /* \"contracts/97. Events.sol\":388:406  uint transactionId */\n      0x00\n        /* \"contracts/97. Events.sol\":409:412  123 */\n      0x7b\n        /* \"contracts/97. Events.sol\":388:412  uint transactionId = 123 */\n      swap1\n      pop\n        /* \"contracts/97. Events.sol\":470:479  recipient */\n      dup3\n        /* \"contracts/97. Events.sol\":428:488  NewTransaction(transactionId, msg.sender, recipient, amount) */\n      0xffffffffffffffffffffffffffffffffffffffff\n      and\n        /* \"contracts/97. Events.sol\":458:468  msg.sender */\n      caller\n        /* \"contracts/97. Events.sol\":428:488  NewTransaction(transactionId, msg.sender, recipient, amount) */\n      0xffffffffffffffffffffffffffffffffffffffff\n      and\n        /* \"contracts/97. Events.sol\":443:456  transactionId */\n      dup3\n        /* \"contracts/97. Events.sol\":428:488  NewTransaction(transactionId, msg.sender, recipient, amount) */\n      0x4d59cb18dd52ef14d5f24e486b34907f69f29e9f06e06c1a730b4e87d83df9dd\n        /* \"contracts/97. Events.sol\":481:487  amount */\n      dup6\n        /* \"contracts/97. Events.sol\":428:488  NewTransaction(transactionId, msg.sender, recipient, amount) */\n      mload(0x40)\n      tag_12\n      swap2\n      swap1\n      tag_13\n      jump\t// in\n    tag_12:\n      mload(0x40)\n      dup1\n      swap2\n      sub\n      swap1\n      log4\n        /* \"contracts/97. Events.sol\":270:496  {... */\n      pop\n        /* \"contracts/97. Events.sol\":208:496  function Transfer(address recipient, uint amount) public... */\n      pop\n      pop\n      jump\t// out\n        /* \"#utility.yul\":88:205   */\n    tag_15:\n        /* \"#utility.yul\":197:198   */\n      0x00\n        /* \"#utility.yul\":194:195   */\n      dup1\n        /* \"#utility.yul\":187:199   */\n      revert\n        /* \"#utility.yul\":334:460   */\n    tag_17:\n        /* \"#utility.yul\":371:378   */\n      0x00\n        /* \"#utility.yul\":411:453   */\n      0xffffffffffffffffffffffffffffffffffffffff\n        /* \"#utility.yul\":404:409   */\n      dup3\n        /* \"#utility.yul\":400:454   */\n      and\n        /* \"#utility.yul\":389:454   */\n      swap1\n      pop\n        /* \"#utility.yul\":334:460   */\n      swap2\n      swap1\n      pop\n      jump\t// out\n        /* \"#utility.yul\":466:562   */\n    tag_18:\n        /* \"#utility.yul\":503:510   */\n      0x00\n        /* \"#utility.yul\":532:556   */\n      tag_34\n        /* \"#utility.yul\":550:555   */\n      dup3\n        /* \"#utility.yul\":532:556   */\n      tag_17\n      jump\t// in\n    tag_34:\n        /* \"#utility.yul\":521:556   */\n      swap1\n      pop\n        /* \"#utility.yul\":466:562   */\n      swap2\n      swap1\n      pop\n      jump\t// out\n        /* \"#utility.yul\":568:690   */\n    tag_19:\n        /* \"#utility.yul\":641:665   */\n      tag_36\n        /* \"#utility.yul\":659:664   */\n      dup2\n        /* \"#utility.yul\":641:665   */\n      tag_18\n      jump\t// in\n    tag_36:\n        /* \"#utility.yul\":634:639   */\n      dup2\n        /* \"#utility.yul\":631:666   */\n      eq\n        /* \"#utility.yul\":621:684   */\n      tag_37\n      jumpi\n        /* \"#utility.yul\":680:681   */\n      0x00\n        /* \"#utility.yul\":677:678   */\n      dup1\n        /* \"#utility.yul\":670:682   */\n      revert\n        /* \"#utility.yul\":621:684   */\n    tag_37:\n        /* \"#utility.yul\":568:690   */\n      pop\n      jump\t// out\n        /* \"#utility.yul\":696:835   */\n    tag_20:\n        /* \"#utility.yul\":742:747   */\n      0x00\n        /* \"#utility.yul\":780:786   */\n      dup2\n        /* \"#utility.yul\":767:787   */\n      calldataload\n        /* \"#utility.yul\":758:787   */\n      swap1\n      pop\n        /* \"#utility.yul\":796:829   */\n      tag_39\n        /* \"#utility.yul\":823:828   */\n      dup2\n        /* \"#utility.yul\":796:829   */\n      tag_19\n      jump\t// in\n    tag_39:\n        /* \"#utility.yul\":696:835   */\n      swap3\n      swap2\n      pop\n      pop\n      jump\t// out\n        /* \"#utility.yul\":841:918   */\n    tag_21:\n        /* \"#utility.yul\":878:885   */\n      0x00\n        /* \"#utility.yul\":907:912   */\n      dup2\n        /* \"#utility.yul\":896:912   */\n      swap1\n      pop\n        /* \"#utility.yul\":841:918   */\n      swap2\n      swap1\n      pop\n      jump\t// out\n        /* \"#utility.yul\":924:1046   */\n    tag_22:\n        /* \"#utility.yul\":997:1021   */\n      tag_42\n        /* \"#utility.yul\":1015:1020   */\n      dup2\n        /* \"#utility.yul\":997:1021   */\n      tag_21\n      jump\t// in\n    tag_42:\n        /* \"#utility.yul\":990:995   */\n      dup2\n        /* \"#utility.yul\":987:1022   */\n      eq\n        /* \"#utility.yul\":977:1040   */\n      tag_43\n      jumpi\n        /* \"#utility.yul\":1036:1037   */\n      0x00\n        /* \"#utility.yul\":1033:1034   */\n      dup1\n        /* \"#utility.yul\":1026:1038   */\n      revert\n        /* \"#utility.yul\":977:1040   */\n    tag_43:\n        /* \"#utility.yul\":924:1046   */\n      pop\n      jump\t// out\n        /* \"#utility.yul\":1052:1191   */\n    tag_23:\n        /* \"#utility.yul\":1098:1103   */\n      0x00\n        /* \"#utility.yul\":1136:1142   */\n      dup2\n        /* \"#utility.yul\":1123:1143   */\n      calldataload\n        /* \"#utility.yul\":1114:1143   */\n      swap1\n      pop\n        /* \"#utility.yul\":1152:1185   */\n      tag_45\n        /* \"#utility.yul\":1179:1184   */\n      dup2\n        /* \"#utility.yul\":1152:1185   */\n      tag_22\n      jump\t// in\n    tag_45:\n        /* \"#utility.yul\":1052:1191   */\n      swap3\n      swap2\n      pop\n      pop\n      jump\t// out\n        /* \"#utility.yul\":1197:1671   */\n    tag_6:\n        /* \"#utility.yul\":1265:1271   */\n      0x00\n        /* \"#utility.yul\":1273:1279   */\n      dup1\n        /* \"#utility.yul\":1322:1324   */\n      0x40\n        /* \"#utility.yul\":1310:1319   */\n      dup4\n        /* \"#utility.yul\":1301:1308   */\n      dup6\n        /* \"#utility.yul\":1297:1320   */\n      sub\n        /* \"#utility.yul\":1293:1325   */\n      slt\n        /* \"#utility.yul\":1290:1409   */\n      iszero\n      tag_47\n      jumpi\n        /* \"#utility.yul\":1328:1407   */\n      tag_48\n      tag_15\n      jump\t// in\n    tag_48:\n        /* \"#utility.yul\":1290:1409   */\n    tag_47:\n        /* \"#utility.yul\":1448:1449   */\n      0x00\n        /* \"#utility.yul\":1473:1526   */\n      tag_49\n        /* \"#utility.yul\":1518:1525   */\n      dup6\n        /* \"#utility.yul\":1509:1515   */\n      dup3\n        /* \"#utility.yul\":1498:1507   */\n      dup7\n        /* \"#utility.yul\":1494:1516   */\n      add\n        /* \"#utility.yul\":1473:1526   */\n      tag_20\n      jump\t// in\n    tag_49:\n        /* \"#utility.yul\":1463:1526   */\n      swap3\n      pop\n        /* \"#utility.yul\":1419:1536   */\n      pop\n        /* \"#utility.yul\":1575:1577   */\n      0x20\n        /* \"#utility.yul\":1601:1654   */\n      tag_50\n        /* \"#utility.yul\":1646:1653   */\n      dup6\n        /* \"#utility.yul\":1637:1643   */\n      dup3\n        /* \"#utility.yul\":1626:1635   */\n      dup7\n        /* \"#utility.yul\":1622:1644   */\n      add\n        /* \"#utility.yul\":1601:1654   */\n      tag_23\n      jump\t// in\n    tag_50:\n        /* \"#utility.yul\":1591:1654   */\n      swap2\n      pop\n        /* \"#utility.yul\":1546:1664   */\n      pop\n        /* \"#utility.yul\":1197:1671   */\n      swap3\n      pop\n      swap3\n      swap1\n      pop\n      jump\t// out\n        /* \"#utility.yul\":1677:1846   */\n    tag_24:\n        /* \"#utility.yul\":1761:1772   */\n      0x00\n        /* \"#utility.yul\":1795:1801   */\n      dup3\n        /* \"#utility.yul\":1790:1793   */\n      dup3\n        /* \"#utility.yul\":1783:1802   */\n      mstore\n        /* \"#utility.yul\":1835:1839   */\n      0x20\n        /* \"#utility.yul\":1830:1833   */\n      dup3\n        /* \"#utility.yul\":1826:1840   */\n      add\n        /* \"#utility.yul\":1811:1840   */\n      swap1\n      pop\n        /* \"#utility.yul\":1677:1846   */\n      swap3\n      swap2\n      pop\n      pop\n      jump\t// out\n        /* \"#utility.yul\":1852:2072   */\n    tag_25:\n        /* \"#utility.yul\":1992:2026   */\n      0x54686520616d6f756e74206973206c657373207468616e206578706563746564\n        /* \"#utility.yul\":1988:1989   */\n      0x00\n        /* \"#utility.yul\":1980:1986   */\n      dup3\n        /* \"#utility.yul\":1976:1990   */\n      add\n        /* \"#utility.yul\":1969:2027   */\n      mstore\n        /* \"#utility.yul\":2061:2064   */\n      0x2e00000000000000000000000000000000000000000000000000000000000000\n        /* \"#utility.yul\":2056:2058   */\n      0x20\n        /* \"#utility.yul\":2048:2054   */\n      dup3\n        /* \"#utility.yul\":2044:2059   */\n      add\n        /* \"#utility.yul\":2037:2065   */\n      mstore\n        /* \"#utility.yul\":1852:2072   */\n      pop\n      jump\t// out\n        /* \"#utility.yul\":2078:2444   */\n    tag_26:\n        /* \"#utility.yul\":2220:2223   */\n      0x00\n        /* \"#utility.yul\":2241:2308   */\n      tag_54\n        /* \"#utility.yul\":2305:2307   */\n      0x21\n        /* \"#utility.yul\":2300:2303   */\n      dup4\n        /* \"#utility.yul\":2241:2308   */\n      tag_24\n      jump\t// in\n    tag_54:\n        /* \"#utility.yul\":2234:2308   */\n      swap2\n      pop\n        /* \"#utility.yul\":2317:2410   */\n      tag_55\n        /* \"#utility.yul\":2406:2409   */\n      dup3\n        /* \"#utility.yul\":2317:2410   */\n      tag_25\n      jump\t// in\n    tag_55:\n        /* \"#utility.yul\":2435:2437   */\n      0x40\n        /* \"#utility.yul\":2430:2433   */\n      dup3\n        /* \"#utility.yul\":2426:2438   */\n      add\n        /* \"#utility.yul\":2419:2438   */\n      swap1\n      pop\n        /* \"#utility.yul\":2078:2444   */\n      swap2\n      swap1\n      pop\n      jump\t// out\n        /* \"#utility.yul\":2450:2869   */\n    tag_11:\n        /* \"#utility.yul\":2616:2620   */\n      0x00\n        /* \"#utility.yul\":2654:2656   */\n      0x20\n        /* \"#utility.yul\":2643:2652   */\n      dup3\n        /* \"#utility.yul\":2639:2657   */\n      add\n        /* \"#utility.yul\":2631:2657   */\n      swap1\n      pop\n        /* \"#utility.yul\":2703:2712   */\n      dup2\n        /* \"#utility.yul\":2697:2701   */\n      dup2\n        /* \"#utility.yul\":2693:2713   */\n      sub\n        /* \"#utility.yul\":2689:2690   */\n      0x00\n        /* \"#utility.yul\":2678:2687   */\n      dup4\n        /* \"#utility.yul\":2674:2691   */\n      add\n        /* \"#utility.yul\":2667:2714   */\n      mstore\n        /* \"#utility.yul\":2731:2862   */\n      tag_57\n        /* \"#utility.yul\":2857:2861   */\n      dup2\n        /* \"#utility.yul\":2731:2862   */\n      tag_26\n      jump\t// in\n    tag_57:\n        /* \"#utility.yul\":2723:2862   */\n      swap1\n      pop\n        /* \"#utility.yul\":2450:2869   */\n      swap2\n      swap1\n      pop\n      jump\t// out\n        /* \"#utility.yul\":2875:2993   */\n    tag_27:\n        /* \"#utility.yul\":2962:2986   */\n      tag_59\n        /* \"#utility.yul\":2980:2985   */\n      dup2\n        /* \"#utility.yul\":2962:2986   */\n      tag_21\n      jump\t// in\n    tag_59:\n        /* \"#utility.yul\":2957:2960   */\n      dup3\n        /* \"#utility.yul\":2950:2987   */\n      mstore\n        /* \"#utility.yul\":2875:2993   */\n      pop\n      pop\n      jump\t// out\n        /* \"#utility.yul\":2999:3221   */\n    tag_13:\n        /* \"#utility.yul\":3092:3096   */\n      0x00\n        /* \"#utility.yul\":3130:3132   */\n      0x20\n        /* \"#utility.yul\":3119:3128   */\n      dup3\n        /* \"#utility.yul\":3115:3133   */\n      add\n        /* \"#utility.yul\":3107:3133   */\n      swap1\n      pop\n        /* \"#utility.yul\":3143:3214   */\n      tag_61\n        /* \"#utility.yul\":3211:3212   */\n      0x00\n        /* \"#utility.yul\":3200:3209   */\n      dup4\n        /* \"#utility.yul\":3196:3213   */\n      add\n        /* \"#utility.yul\":3187:3193   */\n      dup5\n        /* \"#utility.yul\":3143:3214   */\n      tag_27\n      jump\t// in\n    tag_61:\n        /* \"#utility.yul\":2999:3221   */\n      swap3\n      swap2\n      pop\n      pop\n      jump\t// out\n\n    auxdata: 0xa2646970667358221220f1b49e76e4cd7fd4d2767b1c547b01727bd0e96dc1d971d98acd3c49eefe804364736f6c63430008170033\n}\n",
				"bytecode": {
					"linkReferences": {},
					"object": "608060405234801561001057600080fd5b506102de806100206000396000f3fe608060405234801561001057600080fd5b506004361061002b5760003560e01c806369ca02dd14610030575b600080fd5b61004a6004803603810190610045919061019b565b61004c565b005b610190811015610091576040517f08c379a00000000000000000000000000000000000000000000000000000000081526004016100889061025e565b60405180910390fd5b6000607b90508273ffffffffffffffffffffffffffffffffffffffff163373ffffffffffffffffffffffffffffffffffffffff16827f4d59cb18dd52ef14d5f24e486b34907f69f29e9f06e06c1a730b4e87d83df9dd856040516100f5919061028d565b60405180910390a4505050565b600080fd5b600073ffffffffffffffffffffffffffffffffffffffff82169050919050565b600061013282610107565b9050919050565b61014281610127565b811461014d57600080fd5b50565b60008135905061015f81610139565b92915050565b6000819050919050565b61017881610165565b811461018357600080fd5b50565b6000813590506101958161016f565b92915050565b600080604083850312156101b2576101b1610102565b5b60006101c085828601610150565b92505060206101d185828601610186565b9150509250929050565b600082825260208201905092915050565b7f54686520616d6f756e74206973206c657373207468616e20657870656374656460008201527f2e00000000000000000000000000000000000000000000000000000000000000602082015250565b60006102486021836101db565b9150610253826101ec565b604082019050919050565b600060208201905081810360008301526102778161023b565b9050919050565b61028781610165565b82525050565b60006020820190506102a2600083018461027e565b9291505056fea2646970667358221220f1b49e76e4cd7fd4d2767b1c547b01727bd0e96dc1d971d98acd3c49eefe804364736f6c63430008170033",
					"opcodes": "PUSH1 0x80 PUSH1 0x40 MSTORE CALLVALUE DUP1 ISZERO PUSH2 0x10 JUMPI PUSH1 0x0 DUP1 REVERT JUMPDEST POP PUSH2 0x2DE DUP1 PUSH2 0x20 PUSH1 0x0 CODECOPY PUSH1 0x0 RETURN INVALID PUSH1 0x80 PUSH1 0x40 MSTORE CALLVALUE DUP1 ISZERO PUSH2 0x10 JUMPI PUSH1 0x0 DUP1 REVERT JUMPDEST POP PUSH1 0x4 CALLDATASIZE LT PUSH2 0x2B JUMPI PUSH1 0x0 CALLDATALOAD PUSH1 0xE0 SHR DUP1 PUSH4 0x69CA02DD EQ PUSH2 0x30 JUMPI JUMPDEST PUSH1 0x0 DUP1 REVERT JUMPDEST PUSH2 0x4A PUSH1 0x4 DUP1 CALLDATASIZE SUB DUP2 ADD SWAP1 PUSH2 0x45 SWAP2 SWAP1 PUSH2 0x19B JUMP JUMPDEST PUSH2 0x4C JUMP JUMPDEST STOP JUMPDEST PUSH2 0x190 DUP2 LT ISZERO PUSH2 0x91 JUMPI PUSH1 0x40 MLOAD PUSH32 0x8C379A000000000000000000000000000000000000000000000000000000000 DUP2 MSTORE PUSH1 0x4 ADD PUSH2 0x88 SWAP1 PUSH2 0x25E JUMP JUMPDEST PUSH1 0x40 MLOAD DUP1 SWAP2 SUB SWAP1 REVERT JUMPDEST PUSH1 0x0 PUSH1 0x7B SWAP1 POP DUP3 PUSH20 0xFFFFFFFFFFFFFFFFFFFFFFFFFFFFFFFFFFFFFFFF AND CALLER PUSH20 0xFFFFFFFFFFFFFFFFFFFFFFFFFFFFFFFFFFFFFFFF AND DUP3 PUSH32 0x4D59CB18DD52EF14D5F24E486B34907F69F29E9F06E06C1A730B4E87D83DF9DD DUP6 PUSH1 0x40 MLOAD PUSH2 0xF5 SWAP2 SWAP1 PUSH2 0x28D JUMP JUMPDEST PUSH1 0x40 MLOAD DUP1 SWAP2 SUB SWAP1 LOG4 POP POP POP JUMP JUMPDEST PUSH1 0x0 DUP1 REVERT JUMPDEST PUSH1 0x0 PUSH20 0xFFFFFFFFFFFFFFFFFFFFFFFFFFFFFFFFFFFFFFFF DUP3 AND SWAP1 POP SWAP2 SWAP1 POP JUMP JUMPDEST PUSH1 0x0 PUSH2 0x132 DUP3 PUSH2 0x107 JUMP JUMPDEST SWAP1 POP SWAP2 SWAP1 POP JUMP JUMPDEST PUSH2 0x142 DUP2 PUSH2 0x127 JUMP JUMPDEST DUP2 EQ PUSH2 0x14D JUMPI PUSH1 0x0 DUP1 REVERT JUMPDEST POP JUMP JUMPDEST PUSH1 0x0 DUP2 CALLDATALOAD SWAP1 POP PUSH2 0x15F DUP2 PUSH2 0x139 JUMP JUMPDEST SWAP3 SWAP2 POP POP JUMP JUMPDEST PUSH1 0x0 DUP2 SWAP1 POP SWAP2 SWAP1 POP JUMP JUMPDEST PUSH2 0x178 DUP2 PUSH2 0x165 JUMP JUMPDEST DUP2 EQ PUSH2 0x183 JUMPI PUSH1 0x0 DUP1 REVERT JUMPDEST POP JUMP JUMPDEST PUSH1 0x0 DUP2 CALLDATALOAD SWAP1 POP PUSH2 0x195 DUP2 PUSH2 0x16F JUMP JUMPDEST SWAP3 SWAP2 POP POP JUMP JUMPDEST PUSH1 0x0 DUP1 PUSH1 0x40 DUP4 DUP6 SUB SLT ISZERO PUSH2 0x1B2 JUMPI PUSH2 0x1B1 PUSH2 0x102 JUMP JUMPDEST JUMPDEST PUSH1 0x0 PUSH2 0x1C0 DUP6 DUP3 DUP7 ADD PUSH2 0x150 JUMP JUMPDEST SWAP3 POP POP PUSH1 0x20 PUSH2 0x1D1 DUP6 DUP3 DUP7 ADD PUSH2 0x186 JUMP JUMPDEST SWAP2 POP POP SWAP3 POP SWAP3 SWAP1 POP JUMP JUMPDEST PUSH1 0x0 DUP3 DUP3 MSTORE PUSH1 0x20 DUP3 ADD SWAP1 POP SWAP3 SWAP2 POP POP JUMP JUMPDEST PUSH32 0x54686520616D6F756E74206973206C657373207468616E206578706563746564 PUSH1 0x0 DUP3 ADD MSTORE PUSH32 0x2E00000000000000000000000000000000000000000000000000000000000000 PUSH1 0x20 DUP3 ADD MSTORE POP JUMP JUMPDEST PUSH1 0x0 PUSH2 0x248 PUSH1 0x21 DUP4 PUSH2 0x1DB JUMP JUMPDEST SWAP2 POP PUSH2 0x253 DUP3 PUSH2 0x1EC JUMP JUMPDEST PUSH1 0x40 DUP3 ADD SWAP1 POP SWAP2 SWAP1 POP JUMP JUMPDEST PUSH1 0x0 PUSH1 0x20 DUP3 ADD SWAP1 POP DUP2 DUP2 SUB PUSH1 0x0 DUP4 ADD MSTORE PUSH2 0x277 DUP2 PUSH2 0x23B JUMP JUMPDEST SWAP1 POP SWAP2 SWAP1 POP JUMP JUMPDEST PUSH2 0x287 DUP2 PUSH2 0x165 JUMP JUMPDEST DUP3 MSTORE POP POP JUMP JUMPDEST PUSH1 0x0 PUSH1 0x20 DUP3 ADD SWAP1 POP PUSH2 0x2A2 PUSH1 0x0 DUP4 ADD DUP5 PUSH2 0x27E JUMP JUMPDEST SWAP3 SWAP2 POP POP JUMP INVALID LOG2 PUSH5 0x6970667358 0x22 SLT KECCAK256 CALL 0xB4 SWAP15 PUSH23 0xE4CD7FD4D2767B1C547B01727BD0E96DC1D971D98ACD3C 0x49 0xEE INVALID DUP1 NUMBER PUSH5 0x736F6C6343 STOP ADDMOD OR STOP CALLER "
				},
				"gasEstimates": {
					"creation": {
						"codeDepositCost": "146800",
						"executionCost": "190",
						"totalCost": "146990"
					},
					"external": {
						"Transfer(address,uint256)": "infinite"
					}
				},
				"methodIdentifiers": {
					"Transfer(address,uint256)": "69ca02dd"
				}
			},
			"storageLayout": {
				"storage": [],
				"types": null
			},
			"userdoc": {
				"kind": "user",
				"methods": {},
				"version": 1
			}
		}
	}
}