{
	"contracts/93. ControlStructures.sol": {
		"ControlStructures": {
			"abi": [
				{
					"inputs": [
						{
							"internalType": "uint256",
							"name": "stop",
							"type": "uint256"
						}
					],
					"name": "ForLoop",
					"outputs": [
						{
							"internalType": "uint256",
							"name": "",
							"type": "uint256"
						}
					],
					"stateMutability": "pure",
					"type": "function"
				},
				{
					"inputs": [
						{
							"internalType": "uint256",
							"name": "x",
							"type": "uint256"
						}
					],
					"name": "IfElse",
					"outputs": [
						{
							"internalType": "uint256",
							"name": "",
							"type": "uint256"
						}
					],
					"stateMutability": "pure",
					"type": "function"
				},
				{
					"inputs": [
						{
							"internalType": "uint256",
							"name": "number",
							"type": "uint256"
						}
					],
					"name": "WhileLoop",
					"outputs": [
						{
							"internalType": "uint256",
							"name": "",
							"type": "uint256"
						}
					],
					"stateMutability": "pure",
					"type": "function"
				}
			],
			"devdoc": {
				"kind": "dev",
				"methods": {},
				"version": 1
			},
			"evm": {
				"assembly": "    /* \"contracts/93. ControlStructures.sol\":63:792  contract ControlStructures... */\n  mstore(0x40, 0x80)\n  callvalue\n  dup1\n  iszero\n  tag_1\n  jumpi\n  0x00\n  dup1\n  revert\ntag_1:\n  pop\n  dataSize(sub_0)\n  dup1\n  dataOffset(sub_0)\n  0x00\n  codecopy\n  0x00\n  return\nstop\n\nsub_0: assembly {\n        /* \"contracts/93. ControlStructures.sol\":63:792  contract ControlStructures... */\n      mstore(0x40, 0x80)\n      callvalue\n      dup1\n      iszero\n      tag_1\n      jumpi\n      0x00\n      dup1\n      revert\n    tag_1:\n      pop\n      jumpi(tag_2, lt(calldatasize, 0x04))\n      shr(0xe0, calldataload(0x00))\n      dup1\n      0x97f2699e\n      eq\n      tag_3\n      jumpi\n      dup1\n      0x9cc8e419\n      eq\n      tag_4\n      jumpi\n      dup1\n      0xa1dbbeda\n      eq\n      tag_5\n      jumpi\n    tag_2:\n      0x00\n      dup1\n      revert\n        /* \"contracts/93. ControlStructures.sol\":98:274  function IfElse(uint256 x) public pure returns(uint256)... */\n    tag_3:\n      tag_6\n      0x04\n      dup1\n      calldatasize\n      sub\n      dup2\n      add\n      swap1\n      tag_7\n      swap2\n      swap1\n      tag_8\n      jump\t// in\n    tag_7:\n      tag_9\n      jump\t// in\n    tag_6:\n      mload(0x40)\n      tag_10\n      swap2\n      swap1\n      tag_11\n      jump\t// in\n    tag_10:\n      mload(0x40)\n      dup1\n      swap2\n      sub\n      swap1\n      return\n        /* \"contracts/93. ControlStructures.sol\":282:561  function ForLoop(uint stop) public pure returns(uint)... */\n    tag_4:\n      tag_12\n      0x04\n      dup1\n      calldatasize\n      sub\n      dup2\n      add\n      swap1\n      tag_13\n      swap2\n      swap1\n      tag_8\n      jump\t// in\n    tag_13:\n      tag_14\n      jump\t// in\n    tag_12:\n      mload(0x40)\n      tag_15\n      swap2\n      swap1\n      tag_11\n      jump\t// in\n    tag_15:\n      mload(0x40)\n      dup1\n      swap2\n      sub\n      swap1\n      return\n        /* \"contracts/93. ControlStructures.sol\":569:785  function WhileLoop(uint number) public pure returns(uint)... */\n    tag_5:\n      tag_16\n      0x04\n      dup1\n      calldatasize\n      sub\n      dup2\n      add\n      swap1\n      tag_17\n      swap2\n      swap1\n      tag_8\n      jump\t// in\n    tag_17:\n      tag_18\n      jump\t// in\n    tag_16:\n      mload(0x40)\n      tag_19\n      swap2\n      swap1\n      tag_11\n      jump\t// in\n    tag_19:\n      mload(0x40)\n      dup1\n      swap2\n      sub\n      swap1\n      return\n        /* \"contracts/93. ControlStructures.sol\":98:274  function IfElse(uint256 x) public pure returns(uint256)... */\n    tag_9:\n        /* \"contracts/93. ControlStructures.sol\":145:152  uint256 */\n      0x00\n        /* \"contracts/93. ControlStructures.sol\":178:180  10 */\n      0x0a\n        /* \"contracts/93. ControlStructures.sol\":174:175  x */\n      dup3\n        /* \"contracts/93. ControlStructures.sol\":174:180  x > 10 */\n      gt\n        /* \"contracts/93. ControlStructures.sol\":170:230  if (x > 10)... */\n      iszero\n      tag_21\n      jumpi\n        /* \"contracts/93. ControlStructures.sol\":217:218  1 */\n      0x01\n        /* \"contracts/93. ControlStructures.sol\":213:214  x */\n      dup3\n        /* \"contracts/93. ControlStructures.sol\":213:218  x + 1 */\n      tag_22\n      swap2\n      swap1\n      tag_23\n      jump\t// in\n    tag_22:\n        /* \"contracts/93. ControlStructures.sol\":206:218  return x + 1 */\n      swap1\n      pop\n      jump(tag_20)\n        /* \"contracts/93. ControlStructures.sol\":170:230  if (x > 10)... */\n    tag_21:\n        /* \"contracts/93. ControlStructures.sol\":265:266  1 */\n      0x01\n        /* \"contracts/93. ControlStructures.sol\":261:262  x */\n      dup3\n        /* \"contracts/93. ControlStructures.sol\":261:266  x - 1 */\n      tag_24\n      swap2\n      swap1\n      tag_25\n      jump\t// in\n    tag_24:\n        /* \"contracts/93. ControlStructures.sol\":254:266  return x - 1 */\n      swap1\n      pop\n        /* \"contracts/93. ControlStructures.sol\":98:274  function IfElse(uint256 x) public pure returns(uint256)... */\n    tag_20:\n      swap2\n      swap1\n      pop\n      jump\t// out\n        /* \"contracts/93. ControlStructures.sol\":282:561  function ForLoop(uint stop) public pure returns(uint)... */\n    tag_14:\n        /* \"contracts/93. ControlStructures.sol\":330:334  uint */\n      0x00\n        /* \"contracts/93. ControlStructures.sol\":352:360  uint sum */\n      dup1\n        /* \"contracts/93. ControlStructures.sol\":363:364  0 */\n      0x00\n        /* \"contracts/93. ControlStructures.sol\":352:364  uint sum = 0 */\n      swap1\n      pop\n        /* \"contracts/93. ControlStructures.sol\":382:388  uint i */\n      0x00\n        /* \"contracts/93. ControlStructures.sol\":377:533  for (uint i = 0; i < 10; i++)... */\n    tag_27:\n        /* \"contracts/93. ControlStructures.sol\":398:400  10 */\n      0x0a\n        /* \"contracts/93. ControlStructures.sol\":394:395  i */\n      dup2\n        /* \"contracts/93. ControlStructures.sol\":394:400  i < 10 */\n      lt\n        /* \"contracts/93. ControlStructures.sol\":377:533  for (uint i = 0; i < 10; i++)... */\n      iszero\n      tag_28\n      jumpi\n        /* \"contracts/93. ControlStructures.sol\":438:439  i */\n      dup1\n        /* \"contracts/93. ControlStructures.sol\":431:439  sum += i */\n      dup3\n      tag_30\n      swap2\n      swap1\n      tag_23\n      jump\t// in\n    tag_30:\n      swap2\n      pop\n        /* \"contracts/93. ControlStructures.sol\":466:467  i */\n      dup1\n        /* \"contracts/93. ControlStructures.sol\":458:462  stop */\n      dup5\n        /* \"contracts/93. ControlStructures.sol\":458:467  stop == i */\n      sub\n        /* \"contracts/93. ControlStructures.sol\":454:522  if (stop == i)... */\n      iszero\n        /* \"contracts/93. ControlStructures.sol\":501:506  break */\n      tag_28\n        /* \"contracts/93. ControlStructures.sol\":454:522  if (stop == i)... */\n      jumpi\n        /* \"contracts/93. ControlStructures.sol\":402:405  i++ */\n      dup1\n      dup1\n      0x01\n      add\n      swap2\n      pop\n      pop\n        /* \"contracts/93. ControlStructures.sol\":377:533  for (uint i = 0; i < 10; i++)... */\n      jump(tag_27)\n    tag_28:\n      pop\n        /* \"contracts/93. ControlStructures.sol\":550:553  sum */\n      dup1\n        /* \"contracts/93. ControlStructures.sol\":543:553  return sum */\n      swap2\n      pop\n      pop\n        /* \"contracts/93. ControlStructures.sol\":282:561  function ForLoop(uint stop) public pure returns(uint)... */\n      swap2\n      swap1\n      pop\n      jump\t// out\n        /* \"contracts/93. ControlStructures.sol\":569:785  function WhileLoop(uint number) public pure returns(uint)... */\n    tag_18:\n        /* \"contracts/93. ControlStructures.sol\":621:625  uint */\n      0x00\n        /* \"contracts/93. ControlStructures.sol\":643:653  uint count */\n      dup1\n        /* \"contracts/93. ControlStructures.sol\":656:657  0 */\n      0x00\n        /* \"contracts/93. ControlStructures.sol\":643:657  uint count = 0 */\n      swap1\n      pop\n        /* \"contracts/93. ControlStructures.sol\":670:755  while(number != 0)... */\n    tag_33:\n        /* \"contracts/93. ControlStructures.sol\":686:687  0 */\n      0x00\n        /* \"contracts/93. ControlStructures.sol\":676:682  number */\n      dup4\n        /* \"contracts/93. ControlStructures.sol\":676:687  number != 0 */\n      eq\n        /* \"contracts/93. ControlStructures.sol\":670:755  while(number != 0)... */\n      tag_34\n      jumpi\n        /* \"contracts/93. ControlStructures.sol\":713:720  count++ */\n      dup1\n      dup1\n      tag_35\n      swap1\n      tag_36\n      jump\t// in\n    tag_35:\n      swap2\n      pop\n      pop\n        /* \"contracts/93. ControlStructures.sol\":735:743  number-- */\n      dup3\n      dup1\n      tag_37\n      swap1\n      tag_38\n      jump\t// in\n    tag_37:\n      swap4\n      pop\n      pop\n        /* \"contracts/93. ControlStructures.sol\":670:755  while(number != 0)... */\n      jump(tag_33)\n    tag_34:\n        /* \"contracts/93. ControlStructures.sol\":772:777  count */\n      dup1\n        /* \"contracts/93. ControlStructures.sol\":765:777  return count */\n      swap2\n      pop\n      pop\n        /* \"contracts/93. ControlStructures.sol\":569:785  function WhileLoop(uint number) public pure returns(uint)... */\n      swap2\n      swap1\n      pop\n      jump\t// out\n        /* \"#utility.yul\":88:205   */\n    tag_40:\n        /* \"#utility.yul\":197:198   */\n      0x00\n        /* \"#utility.yul\":194:195   */\n      dup1\n        /* \"#utility.yul\":187:199   */\n      revert\n        /* \"#utility.yul\":334:411   */\n    tag_42:\n        /* \"#utility.yul\":371:378   */\n      0x00\n        /* \"#utility.yul\":400:405   */\n      dup2\n        /* \"#utility.yul\":389:405   */\n      swap1\n      pop\n        /* \"#utility.yul\":334:411   */\n      swap2\n      swap1\n      pop\n      jump\t// out\n        /* \"#utility.yul\":417:539   */\n    tag_43:\n        /* \"#utility.yul\":490:514   */\n      tag_53\n        /* \"#utility.yul\":508:513   */\n      dup2\n        /* \"#utility.yul\":490:514   */\n      tag_42\n      jump\t// in\n    tag_53:\n        /* \"#utility.yul\":483:488   */\n      dup2\n        /* \"#utility.yul\":480:515   */\n      eq\n        /* \"#utility.yul\":470:533   */\n      tag_54\n      jumpi\n        /* \"#utility.yul\":529:530   */\n      0x00\n        /* \"#utility.yul\":526:527   */\n      dup1\n        /* \"#utility.yul\":519:531   */\n      revert\n        /* \"#utility.yul\":470:533   */\n    tag_54:\n        /* \"#utility.yul\":417:539   */\n      pop\n      jump\t// out\n        /* \"#utility.yul\":545:684   */\n    tag_44:\n        /* \"#utility.yul\":591:596   */\n      0x00\n        /* \"#utility.yul\":629:635   */\n      dup2\n        /* \"#utility.yul\":616:636   */\n      calldataload\n        /* \"#utility.yul\":607:636   */\n      swap1\n      pop\n        /* \"#utility.yul\":645:678   */\n      tag_56\n        /* \"#utility.yul\":672:677   */\n      dup2\n        /* \"#utility.yul\":645:678   */\n      tag_43\n      jump\t// in\n    tag_56:\n        /* \"#utility.yul\":545:684   */\n      swap3\n      swap2\n      pop\n      pop\n      jump\t// out\n        /* \"#utility.yul\":690:1019   */\n    tag_8:\n        /* \"#utility.yul\":749:755   */\n      0x00\n        /* \"#utility.yul\":798:800   */\n      0x20\n        /* \"#utility.yul\":786:795   */\n      dup3\n        /* \"#utility.yul\":777:784   */\n      dup5\n        /* \"#utility.yul\":773:796   */\n      sub\n        /* \"#utility.yul\":769:801   */\n      slt\n        /* \"#utility.yul\":766:885   */\n      iszero\n      tag_58\n      jumpi\n        /* \"#utility.yul\":804:883   */\n      tag_59\n      tag_40\n      jump\t// in\n    tag_59:\n        /* \"#utility.yul\":766:885   */\n    tag_58:\n        /* \"#utility.yul\":924:925   */\n      0x00\n        /* \"#utility.yul\":949:1002   */\n      tag_60\n        /* \"#utility.yul\":994:1001   */\n      dup5\n        /* \"#utility.yul\":985:991   */\n      dup3\n        /* \"#utility.yul\":974:983   */\n      dup6\n        /* \"#utility.yul\":970:992   */\n      add\n        /* \"#utility.yul\":949:1002   */\n      tag_44\n      jump\t// in\n    tag_60:\n        /* \"#utility.yul\":939:1002   */\n      swap2\n      pop\n        /* \"#utility.yul\":895:1012   */\n      pop\n        /* \"#utility.yul\":690:1019   */\n      swap3\n      swap2\n      pop\n      pop\n      jump\t// out\n        /* \"#utility.yul\":1025:1143   */\n    tag_45:\n        /* \"#utility.yul\":1112:1136   */\n      tag_62\n        /* \"#utility.yul\":1130:1135   */\n      dup2\n        /* \"#utility.yul\":1112:1136   */\n      tag_42\n      jump\t// in\n    tag_62:\n        /* \"#utility.yul\":1107:1110   */\n      dup3\n        /* \"#utility.yul\":1100:1137   */\n      mstore\n        /* \"#utility.yul\":1025:1143   */\n      pop\n      pop\n      jump\t// out\n        /* \"#utility.yul\":1149:1371   */\n    tag_11:\n        /* \"#utility.yul\":1242:1246   */\n      0x00\n        /* \"#utility.yul\":1280:1282   */\n      0x20\n        /* \"#utility.yul\":1269:1278   */\n      dup3\n        /* \"#utility.yul\":1265:1283   */\n      add\n        /* \"#utility.yul\":1257:1283   */\n      swap1\n      pop\n        /* \"#utility.yul\":1293:1364   */\n      tag_64\n        /* \"#utility.yul\":1361:1362   */\n      0x00\n        /* \"#utility.yul\":1350:1359   */\n      dup4\n        /* \"#utility.yul\":1346:1363   */\n      add\n        /* \"#utility.yul\":1337:1343   */\n      dup5\n        /* \"#utility.yul\":1293:1364   */\n      tag_45\n      jump\t// in\n    tag_64:\n        /* \"#utility.yul\":1149:1371   */\n      swap3\n      swap2\n      pop\n      pop\n      jump\t// out\n        /* \"#utility.yul\":1377:1557   */\n    tag_46:\n        /* \"#utility.yul\":1425:1502   */\n      0x4e487b7100000000000000000000000000000000000000000000000000000000\n        /* \"#utility.yul\":1422:1423   */\n      0x00\n        /* \"#utility.yul\":1415:1503   */\n      mstore\n        /* \"#utility.yul\":1522:1526   */\n      0x11\n        /* \"#utility.yul\":1519:1520   */\n      0x04\n        /* \"#utility.yul\":1512:1527   */\n      mstore\n        /* \"#utility.yul\":1546:1550   */\n      0x24\n        /* \"#utility.yul\":1543:1544   */\n      0x00\n        /* \"#utility.yul\":1536:1551   */\n      revert\n        /* \"#utility.yul\":1563:1754   */\n    tag_23:\n        /* \"#utility.yul\":1603:1606   */\n      0x00\n        /* \"#utility.yul\":1622:1642   */\n      tag_67\n        /* \"#utility.yul\":1640:1641   */\n      dup3\n        /* \"#utility.yul\":1622:1642   */\n      tag_42\n      jump\t// in\n    tag_67:\n        /* \"#utility.yul\":1617:1642   */\n      swap2\n      pop\n        /* \"#utility.yul\":1656:1676   */\n      tag_68\n        /* \"#utility.yul\":1674:1675   */\n      dup4\n        /* \"#utility.yul\":1656:1676   */\n      tag_42\n      jump\t// in\n    tag_68:\n        /* \"#utility.yul\":1651:1676   */\n      swap3\n      pop\n        /* \"#utility.yul\":1699:1700   */\n      dup3\n        /* \"#utility.yul\":1696:1697   */\n      dup3\n        /* \"#utility.yul\":1692:1701   */\n      add\n        /* \"#utility.yul\":1685:1701   */\n      swap1\n      pop\n        /* \"#utility.yul\":1720:1723   */\n      dup1\n        /* \"#utility.yul\":1717:1718   */\n      dup3\n        /* \"#utility.yul\":1714:1724   */\n      gt\n        /* \"#utility.yul\":1711:1747   */\n      iszero\n      tag_69\n      jumpi\n        /* \"#utility.yul\":1727:1745   */\n      tag_70\n      tag_46\n      jump\t// in\n    tag_70:\n        /* \"#utility.yul\":1711:1747   */\n    tag_69:\n        /* \"#utility.yul\":1563:1754   */\n      swap3\n      swap2\n      pop\n      pop\n      jump\t// out\n        /* \"#utility.yul\":1760:1954   */\n    tag_25:\n        /* \"#utility.yul\":1800:1804   */\n      0x00\n        /* \"#utility.yul\":1820:1840   */\n      tag_72\n        /* \"#utility.yul\":1838:1839   */\n      dup3\n        /* \"#utility.yul\":1820:1840   */\n      tag_42\n      jump\t// in\n    tag_72:\n        /* \"#utility.yul\":1815:1840   */\n      swap2\n      pop\n        /* \"#utility.yul\":1854:1874   */\n      tag_73\n        /* \"#utility.yul\":1872:1873   */\n      dup4\n        /* \"#utility.yul\":1854:1874   */\n      tag_42\n      jump\t// in\n    tag_73:\n        /* \"#utility.yul\":1849:1874   */\n      swap3\n      pop\n        /* \"#utility.yul\":1898:1899   */\n      dup3\n        /* \"#utility.yul\":1895:1896   */\n      dup3\n        /* \"#utility.yul\":1891:1900   */\n      sub\n        /* \"#utility.yul\":1883:1900   */\n      swap1\n      pop\n        /* \"#utility.yul\":1922:1923   */\n      dup2\n        /* \"#utility.yul\":1916:1920   */\n      dup2\n        /* \"#utility.yul\":1913:1924   */\n      gt\n        /* \"#utility.yul\":1910:1947   */\n      iszero\n      tag_74\n      jumpi\n        /* \"#utility.yul\":1927:1945   */\n      tag_75\n      tag_46\n      jump\t// in\n    tag_75:\n        /* \"#utility.yul\":1910:1947   */\n    tag_74:\n        /* \"#utility.yul\":1760:1954   */\n      swap3\n      swap2\n      pop\n      pop\n      jump\t// out\n        /* \"#utility.yul\":1960:2193   */\n    tag_36:\n        /* \"#utility.yul\":1999:2002   */\n      0x00\n        /* \"#utility.yul\":2022:2046   */\n      tag_77\n        /* \"#utility.yul\":2040:2045   */\n      dup3\n        /* \"#utility.yul\":2022:2046   */\n      tag_42\n      jump\t// in\n    tag_77:\n        /* \"#utility.yul\":2013:2046   */\n      swap2\n      pop\n        /* \"#utility.yul\":2068:2134   */\n      0xffffffffffffffffffffffffffffffffffffffffffffffffffffffffffffffff\n        /* \"#utility.yul\":2061:2066   */\n      dup3\n        /* \"#utility.yul\":2058:2135   */\n      sub\n        /* \"#utility.yul\":2055:2158   */\n      tag_78\n      jumpi\n        /* \"#utility.yul\":2138:2156   */\n      tag_79\n      tag_46\n      jump\t// in\n    tag_79:\n        /* \"#utility.yul\":2055:2158   */\n    tag_78:\n        /* \"#utility.yul\":2185:2186   */\n      0x01\n        /* \"#utility.yul\":2178:2183   */\n      dup3\n        /* \"#utility.yul\":2174:2187   */\n      add\n        /* \"#utility.yul\":2167:2187   */\n      swap1\n      pop\n        /* \"#utility.yul\":1960:2193   */\n      swap2\n      swap1\n      pop\n      jump\t// out\n        /* \"#utility.yul\":2199:2370   */\n    tag_38:\n        /* \"#utility.yul\":2238:2241   */\n      0x00\n        /* \"#utility.yul\":2261:2285   */\n      tag_81\n        /* \"#utility.yul\":2279:2284   */\n      dup3\n        /* \"#utility.yul\":2261:2285   */\n      tag_42\n      jump\t// in\n    tag_81:\n        /* \"#utility.yul\":2252:2285   */\n      swap2\n      pop\n        /* \"#utility.yul\":2307:2311   */\n      0x00\n        /* \"#utility.yul\":2300:2305   */\n      dup3\n        /* \"#utility.yul\":2297:2312   */\n      sub\n        /* \"#utility.yul\":2294:2335   */\n      tag_82\n      jumpi\n        /* \"#utility.yul\":2315:2333   */\n      tag_83\n      tag_46\n      jump\t// in\n    tag_83:\n        /* \"#utility.yul\":2294:2335   */\n    tag_82:\n        /* \"#utility.yul\":2362:2363   */\n      0x01\n        /* \"#utility.yul\":2355:2360   */\n      dup3\n        /* \"#utility.yul\":2351:2364   */\n      sub\n        /* \"#utility.yul\":2344:2364   */\n      swap1\n      pop\n        /* \"#utility.yul\":2199:2370   */\n      swap2\n      swap1\n      pop\n      jump\t// out\n\n    auxdata: 0xa26469706673582212200cc1093cecb670e92d3883beff04859cee4eaf46215ee677823506a36a6a9f0864736f6c63430008170033\n}\n",
				"bytecode": {
					"linkReferences": {},
					"object": "608060405234801561001057600080fd5b50610354806100206000396000f3fe608060405234801561001057600080fd5b50600436106100415760003560e01c806397f2699e146100465780639cc8e41914610076578063a1dbbeda146100a6575b600080fd5b610060600480360381019061005b91906101bf565b6100d6565b60405161006d91906101fb565b60405180910390f35b610090600480360381019061008b91906101bf565b61010a565b60405161009d91906101fb565b60405180910390f35b6100c060048036038101906100bb91906101bf565b61014a565b6040516100cd91906101fb565b60405180910390f35b6000600a8211156100f5576001826100ee9190610245565b9050610105565b6001826101029190610279565b90505b919050565b6000806000905060005b600a8110156101405780826101299190610245565b915080840315610140578080600101915050610114565b5080915050919050565b600080600090505b6000831461017b578080610165906102ad565b9150508280610173906102f5565b935050610152565b80915050919050565b600080fd5b6000819050919050565b61019c81610189565b81146101a757600080fd5b50565b6000813590506101b981610193565b92915050565b6000602082840312156101d5576101d4610184565b5b60006101e3848285016101aa565b91505092915050565b6101f581610189565b82525050565b600060208201905061021060008301846101ec565b92915050565b7f4e487b7100000000000000000000000000000000000000000000000000000000600052601160045260246000fd5b600061025082610189565b915061025b83610189565b925082820190508082111561027357610272610216565b5b92915050565b600061028482610189565b915061028f83610189565b92508282039050818111156102a7576102a6610216565b5b92915050565b60006102b882610189565b91507fffffffffffffffffffffffffffffffffffffffffffffffffffffffffffffffff82036102ea576102e9610216565b5b600182019050919050565b600061030082610189565b91506000820361031357610312610216565b5b60018203905091905056fea26469706673582212200cc1093cecb670e92d3883beff04859cee4eaf46215ee677823506a36a6a9f0864736f6c63430008170033",
					"opcodes": "PUSH1 0x80 PUSH1 0x40 MSTORE CALLVALUE DUP1 ISZERO PUSH2 0x10 JUMPI PUSH1 0x0 DUP1 REVERT JUMPDEST POP PUSH2 0x354 DUP1 PUSH2 0x20 PUSH1 0x0 CODECOPY PUSH1 0x0 RETURN INVALID PUSH1 0x80 PUSH1 0x40 MSTORE CALLVALUE DUP1 ISZERO PUSH2 0x10 JUMPI PUSH1 0x0 DUP1 REVERT JUMPDEST POP PUSH1 0x4 CALLDATASIZE LT PUSH2 0x41 JUMPI PUSH1 0x0 CALLDATALOAD PUSH1 0xE0 SHR DUP1 PUSH4 0x97F2699E EQ PUSH2 0x46 JUMPI DUP1 PUSH4 0x9CC8E419 EQ PUSH2 0x76 JUMPI DUP1 PUSH4 0xA1DBBEDA EQ PUSH2 0xA6 JUMPI JUMPDEST PUSH1 0x0 DUP1 REVERT JUMPDEST PUSH2 0x60 PUSH1 0x4 DUP1 CALLDATASIZE SUB DUP2 ADD SWAP1 PUSH2 0x5B SWAP2 SWAP1 PUSH2 0x1BF JUMP JUMPDEST PUSH2 0xD6 JUMP JUMPDEST PUSH1 0x40 MLOAD PUSH2 0x6D SWAP2 SWAP1 PUSH2 0x1FB JUMP JUMPDEST PUSH1 0x40 MLOAD DUP1 SWAP2 SUB SWAP1 RETURN JUMPDEST PUSH2 0x90 PUSH1 0x4 DUP1 CALLDATASIZE SUB DUP2 ADD SWAP1 PUSH2 0x8B SWAP2 SWAP1 PUSH2 0x1BF JUMP JUMPDEST PUSH2 0x10A JUMP JUMPDEST PUSH1 0x40 MLOAD PUSH2 0x9D SWAP2 SWAP1 PUSH2 0x1FB JUMP JUMPDEST PUSH1 0x40 MLOAD DUP1 SWAP2 SUB SWAP1 RETURN JUMPDEST PUSH2 0xC0 PUSH1 0x4 DUP1 CALLDATASIZE SUB DUP2 ADD SWAP1 PUSH2 0xBB SWAP2 SWAP1 PUSH2 0x1BF JUMP JUMPDEST PUSH2 0x14A JUMP JUMPDEST PUSH1 0x40 MLOAD PUSH2 0xCD SWAP2 SWAP1 PUSH2 0x1FB JUMP JUMPDEST PUSH1 0x40 MLOAD DUP1 SWAP2 SUB SWAP1 RETURN JUMPDEST PUSH1 0x0 PUSH1 0xA DUP3 GT ISZERO PUSH2 0xF5 JUMPI PUSH1 0x1 DUP3 PUSH2 0xEE SWAP2 SWAP1 PUSH2 0x245 JUMP JUMPDEST SWAP1 POP PUSH2 0x105 JUMP JUMPDEST PUSH1 0x1 DUP3 PUSH2 0x102 SWAP2 SWAP1 PUSH2 0x279 JUMP JUMPDEST SWAP1 POP JUMPDEST SWAP2 SWAP1 POP JUMP JUMPDEST PUSH1 0x0 DUP1 PUSH1 0x0 SWAP1 POP PUSH1 0x0 JUMPDEST PUSH1 0xA DUP2 LT ISZERO PUSH2 0x140 JUMPI DUP1 DUP3 PUSH2 0x129 SWAP2 SWAP1 PUSH2 0x245 JUMP JUMPDEST SWAP2 POP DUP1 DUP5 SUB ISZERO PUSH2 0x140 JUMPI DUP1 DUP1 PUSH1 0x1 ADD SWAP2 POP POP PUSH2 0x114 JUMP JUMPDEST POP DUP1 SWAP2 POP POP SWAP2 SWAP1 POP JUMP JUMPDEST PUSH1 0x0 DUP1 PUSH1 0x0 SWAP1 POP JUMPDEST PUSH1 0x0 DUP4 EQ PUSH2 0x17B JUMPI DUP1 DUP1 PUSH2 0x165 SWAP1 PUSH2 0x2AD JUMP JUMPDEST SWAP2 POP POP DUP3 DUP1 PUSH2 0x173 SWAP1 PUSH2 0x2F5 JUMP JUMPDEST SWAP4 POP POP PUSH2 0x152 JUMP JUMPDEST DUP1 SWAP2 POP POP SWAP2 SWAP1 POP JUMP JUMPDEST PUSH1 0x0 DUP1 REVERT JUMPDEST PUSH1 0x0 DUP2 SWAP1 POP SWAP2 SWAP1 POP JUMP JUMPDEST PUSH2 0x19C DUP2 PUSH2 0x189 JUMP JUMPDEST DUP2 EQ PUSH2 0x1A7 JUMPI PUSH1 0x0 DUP1 REVERT JUMPDEST POP JUMP JUMPDEST PUSH1 0x0 DUP2 CALLDATALOAD SWAP1 POP PUSH2 0x1B9 DUP2 PUSH2 0x193 JUMP JUMPDEST SWAP3 SWAP2 POP POP JUMP JUMPDEST PUSH1 0x0 PUSH1 0x20 DUP3 DUP5 SUB SLT ISZERO PUSH2 0x1D5 JUMPI PUSH2 0x1D4 PUSH2 0x184 JUMP JUMPDEST JUMPDEST PUSH1 0x0 PUSH2 0x1E3 DUP5 DUP3 DUP6 ADD PUSH2 0x1AA JUMP JUMPDEST SWAP2 POP POP SWAP3 SWAP2 POP POP JUMP JUMPDEST PUSH2 0x1F5 DUP2 PUSH2 0x189 JUMP JUMPDEST DUP3 MSTORE POP POP JUMP JUMPDEST PUSH1 0x0 PUSH1 0x20 DUP3 ADD SWAP1 POP PUSH2 0x210 PUSH1 0x0 DUP4 ADD DUP5 PUSH2 0x1EC JUMP JUMPDEST SWAP3 SWAP2 POP POP JUMP JUMPDEST PUSH32 0x4E487B7100000000000000000000000000000000000000000000000000000000 PUSH1 0x0 MSTORE PUSH1 0x11 PUSH1 0x4 MSTORE PUSH1 0x24 PUSH1 0x0 REVERT JUMPDEST PUSH1 0x0 PUSH2 0x250 DUP3 PUSH2 0x189 JUMP JUMPDEST SWAP2 POP PUSH2 0x25B DUP4 PUSH2 0x189 JUMP JUMPDEST SWAP3 POP DUP3 DUP3 ADD SWAP1 POP DUP1 DUP3 GT ISZERO PUSH2 0x273 JUMPI PUSH2 0x272 PUSH2 0x216 JUMP JUMPDEST JUMPDEST SWAP3 SWAP2 POP POP JUMP JUMPDEST PUSH1 0x0 PUSH2 0x284 DUP3 PUSH2 0x189 JUMP JUMPDEST SWAP2 POP PUSH2 0x28F DUP4 PUSH2 0x189 JUMP JUMPDEST SWAP3 POP DUP3 DUP3 SUB SWAP1 POP DUP2 DUP2 GT ISZERO PUSH2 0x2A7 JUMPI PUSH2 0x2A6 PUSH2 0x216 JUMP JUMPDEST JUMPDEST SWAP3 SWAP2 POP POP JUMP JUMPDEST PUSH1 0x0 PUSH2 0x2B8 DUP3 PUSH2 0x189 JUMP JUMPDEST SWAP2 POP PUSH32 0xFFFFFFFFFFFFFFFFFFFFFFFFFFFFFFFFFFFFFFFFFFFFFFFFFFFFFFFFFFFFFFFF DUP3 SUB PUSH2 0x2EA JUMPI PUSH2 0x2E9 PUSH2 0x216 JUMP JUMPDEST JUMPDEST PUSH1 0x1 DUP3 ADD SWAP1 POP SWAP2 SWAP1 POP JUMP JUMPDEST PUSH1 0x0 PUSH2 0x300 DUP3 PUSH2 0x189 JUMP JUMPDEST SWAP2 POP PUSH1 0x0 DUP3 SUB PUSH2 0x313 JUMPI PUSH2 0x312 PUSH2 0x216 JUMP JUMPDEST JUMPDEST PUSH1 0x1 DUP3 SUB SWAP1 POP SWAP2 SWAP1 POP JUMP INVALID LOG2 PUSH5 0x6970667358 0x22 SLT KECCAK256 0xC 0xC1 MULMOD EXTCODECOPY 0xEC 0xB6 PUSH17 0xE92D3883BEFF04859CEE4EAF46215EE677 DUP3 CALLDATALOAD MOD LOG3 PUSH11 0x6A9F0864736F6C63430008 OR STOP CALLER "
				},
				"gasEstimates": {
					"creation": {
						"codeDepositCost": "170400",
						"executionCost": "214",
						"totalCost": "170614"
					},
					"external": {
						"ForLoop(uint256)": "infinite",
						"IfElse(uint256)": "infinite",
						"WhileLoop(uint256)": "infinite"
					}
				},
				"methodIdentifiers": {
					"ForLoop(uint256)": "9cc8e419",
					"IfElse(uint256)": "97f2699e",
					"WhileLoop(uint256)": "a1dbbeda"
				}
			},
			"storageLayout": {
				"storage": [],
				"types": null
			},
			"userdoc": {
				"kind": "user",
				"methods": {},
				"version": 1
			}
		}
	}
}